{
  "contractName": "Lottery",
  "abi": [
    {
      "inputs": [],
      "stateMutability": "nonpayable",
      "type": "constructor"
    },
    {
      "inputs": [
        {
          "internalType": "uint256",
          "name": "",
          "type": "uint256"
        }
      ],
      "name": "lotteryHistory",
      "outputs": [
        {
          "internalType": "address payable",
          "name": "",
          "type": "address"
        }
      ],
      "stateMutability": "view",
      "type": "function",
      "constant": true
    },
    {
      "inputs": [],
      "name": "lotteryId",
      "outputs": [
        {
          "internalType": "uint256",
          "name": "",
          "type": "uint256"
        }
      ],
      "stateMutability": "view",
      "type": "function",
      "constant": true
    },
    {
      "inputs": [],
      "name": "owner",
      "outputs": [
        {
          "internalType": "address",
          "name": "",
          "type": "address"
        }
      ],
      "stateMutability": "view",
      "type": "function",
      "constant": true
    },
    {
      "inputs": [
        {
          "internalType": "uint256",
          "name": "",
          "type": "uint256"
        }
      ],
      "name": "players",
      "outputs": [
        {
          "internalType": "address payable",
          "name": "",
          "type": "address"
        }
      ],
      "stateMutability": "view",
      "type": "function",
      "constant": true
    },
    {
      "inputs": [
        {
          "internalType": "uint256",
          "name": "number",
          "type": "uint256"
        }
      ],
      "name": "GenerateRandomNumber",
      "outputs": [
        {
          "internalType": "uint256",
          "name": "",
          "type": "uint256"
        }
      ],
      "stateMutability": "view",
      "type": "function",
      "constant": true
    },
    {
      "inputs": [
        {
          "internalType": "uint256",
          "name": "id",
          "type": "uint256"
        }
      ],
      "name": "getWinnerByLottery",
      "outputs": [
        {
          "internalType": "address payable",
          "name": "",
          "type": "address"
        }
      ],
      "stateMutability": "view",
      "type": "function",
      "constant": true
    },
    {
      "inputs": [],
      "name": "getSender",
      "outputs": [
        {
          "internalType": "address",
          "name": "",
          "type": "address"
        }
      ],
      "stateMutability": "view",
      "type": "function",
      "constant": true
    },
    {
      "inputs": [],
      "name": "getBalance",
      "outputs": [
        {
          "internalType": "uint256",
          "name": "",
          "type": "uint256"
        }
      ],
      "stateMutability": "view",
      "type": "function",
      "constant": true
    },
    {
      "inputs": [],
      "name": "getPlayers",
      "outputs": [
        {
          "internalType": "address payable[]",
          "name": "",
          "type": "address[]"
        }
      ],
      "stateMutability": "view",
      "type": "function",
      "constant": true
    },
    {
      "inputs": [],
      "name": "enter",
      "outputs": [],
      "stateMutability": "payable",
      "type": "function",
      "payable": true
    },
    {
      "inputs": [],
      "name": "pickWinner",
      "outputs": [],
      "stateMutability": "nonpayable",
      "type": "function"
    }
  ],
  "bytecode": "0x608060405234801561001057600080fd5b50336000806101000a81548173ffffffffffffffffffffffffffffffffffffffff021916908373ffffffffffffffffffffffffffffffffffffffff1602179055506001600281905550610d1e806100686000396000f3fe60806040526004361061009c5760003560e01c80638b5b9ccc116100645780638b5b9ccc146101885780638da5cb5b146101b3578063a749a348146101de578063e580f47b1461021b578063e97dcb6214610246578063f71d96cb146102505761009c565b806312065fe0146100a1578063281d098d146100cc5780635d495aea146101095780635e01eb5a146101205780636d6fe2301461014b575b600080fd5b3480156100ad57600080fd5b506100b661028d565b6040516100c391906107e6565b60405180910390f35b3480156100d857600080fd5b506100f360048036038101906100ee9190610832565b610295565b60405161010091906108a0565b60405180910390f35b34801561011557600080fd5b5061011e6102d2565b005b34801561012c57600080fd5b50610135610504565b60405161014291906108dc565b60405180910390f35b34801561015757600080fd5b50610172600480360381019061016d9190610832565b61050c565b60405161017f91906108a0565b60405180910390f35b34801561019457600080fd5b5061019d61053f565b6040516101aa91906109b5565b60405180910390f35b3480156101bf57600080fd5b506101c86105cd565b6040516101d591906108dc565b60405180910390f35b3480156101ea57600080fd5b5061020560048036038101906102009190610832565b6105f1565b60405161021291906107e6565b60405180910390f35b34801561022757600080fd5b50610230610633565b60405161023d91906107e6565b60405180910390f35b61024e610639565b005b34801561025c57600080fd5b5061027760048036038101906102729190610832565b6106e7565b60405161028491906108a0565b60405180910390f35b600047905090565b60006003600083815260200190815260200160002060009054906101000a900473ffffffffffffffffffffffffffffffffffffffff169050919050565b60008054906101000a900473ffffffffffffffffffffffffffffffffffffffff1673ffffffffffffffffffffffffffffffffffffffff163373ffffffffffffffffffffffffffffffffffffffff1614610360576040517f08c379a000000000000000000000000000000000000000000000000000000000815260040161035790610a5a565b60405180910390fd5b60006103706001805490506105f1565b90506001818154811061038657610385610a7a565b5b9060005260206000200160009054906101000a900473ffffffffffffffffffffffffffffffffffffffff1673ffffffffffffffffffffffffffffffffffffffff166108fc479081150290604051600060405180830381858888f193505050501580156103f6573d6000803e3d6000fd5b506001818154811061040b5761040a610a7a565b5b9060005260206000200160009054906101000a900473ffffffffffffffffffffffffffffffffffffffff1660036000600254815260200190815260200160002060006101000a81548173ffffffffffffffffffffffffffffffffffffffff021916908373ffffffffffffffffffffffffffffffffffffffff1602179055506002600081548092919061049c90610ad8565b9190505550600067ffffffffffffffff8111156104bc576104bb610b21565b5b6040519080825280602002602001820160405280156104ea5781602001602082028036833780820191505090505b5060019080519060200190610500929190610726565b5050565b600033905090565b60036020528060005260406000206000915054906101000a900473ffffffffffffffffffffffffffffffffffffffff1681565b606060018054806020026020016040519081016040528092919081815260200182805480156105c357602002820191906000526020600020905b8160009054906101000a900473ffffffffffffffffffffffffffffffffffffffff1673ffffffffffffffffffffffffffffffffffffffff1681526020019060010190808311610579575b5050505050905090565b60008054906101000a900473ffffffffffffffffffffffffffffffffffffffff1681565b60008142443360405160200161060993929190610bb9565b6040516020818303038152906040528051906020012060001c61062c9190610c25565b9050919050565b60025481565b662386f26fc100003411610682576040517f08c379a000000000000000000000000000000000000000000000000000000000815260040161067990610cc8565b60405180910390fd5b6001339080600181540180825580915050600190039060005260206000200160009091909190916101000a81548173ffffffffffffffffffffffffffffffffffffffff021916908373ffffffffffffffffffffffffffffffffffffffff160217905550565b600181815481106106f757600080fd5b906000526020600020016000915054906101000a900473ffffffffffffffffffffffffffffffffffffffff1681565b82805482825590600052602060002090810192821561079f579160200282015b8281111561079e5782518260006101000a81548173ffffffffffffffffffffffffffffffffffffffff021916908373ffffffffffffffffffffffffffffffffffffffff16021790555091602001919060010190610746565b5b5090506107ac91906107b0565b5090565b5b808211156107c95760008160009055506001016107b1565b5090565b6000819050919050565b6107e0816107cd565b82525050565b60006020820190506107fb60008301846107d7565b92915050565b600080fd5b61080f816107cd565b811461081a57600080fd5b50565b60008135905061082c81610806565b92915050565b60006020828403121561084857610847610801565b5b60006108568482850161081d565b91505092915050565b600073ffffffffffffffffffffffffffffffffffffffff82169050919050565b600061088a8261085f565b9050919050565b61089a8161087f565b82525050565b60006020820190506108b56000830184610891565b92915050565b60006108c68261085f565b9050919050565b6108d6816108bb565b82525050565b60006020820190506108f160008301846108cd565b92915050565b600081519050919050565b600082825260208201905092915050565b6000819050602082019050919050565b61092c8161087f565b82525050565b600061093e8383610923565b60208301905092915050565b6000602082019050919050565b6000610962826108f7565b61096c8185610902565b935061097783610913565b8060005b838110156109a857815161098f8882610932565b975061099a8361094a565b92505060018101905061097b565b5085935050505092915050565b600060208201905081810360008301526109cf8184610957565b905092915050565b600082825260208201905092915050565b7f5472616e73616374696f6e206661696c65642e204f7065726174696f6e20617660008201527f61696c61626c65206f6e6c7920666f72206f776e65722e000000000000000000602082015250565b6000610a446037836109d7565b9150610a4f826109e8565b604082019050919050565b60006020820190508181036000830152610a7381610a37565b9050919050565b7f4e487b7100000000000000000000000000000000000000000000000000000000600052603260045260246000fd5b7f4e487b7100000000000000000000000000000000000000000000000000000000600052601160045260246000fd5b6000610ae3826107cd565b91507fffffffffffffffffffffffffffffffffffffffffffffffffffffffffffffffff821415610b1657610b15610aa9565b5b600182019050919050565b7f4e487b7100000000000000000000000000000000000000000000000000000000600052604160045260246000fd5b6000819050919050565b610b6b610b66826107cd565b610b50565b82525050565b60008160601b9050919050565b6000610b8982610b71565b9050919050565b6000610b9b82610b7e565b9050919050565b610bb3610bae826108bb565b610b90565b82525050565b6000610bc58286610b5a565b602082019150610bd58285610b5a565b602082019150610be58284610ba2565b601482019150819050949350505050565b7f4e487b7100000000000000000000000000000000000000000000000000000000600052601260045260246000fd5b6000610c30826107cd565b9150610c3b836107cd565b925082610c4b57610c4a610bf6565b5b828206905092915050565b7f5472616e73616374696f6e206661696c65642e204e6f7420656e6f756768206760008201527f61732e0000000000000000000000000000000000000000000000000000000000602082015250565b6000610cb26023836109d7565b9150610cbd82610c56565b604082019050919050565b60006020820190508181036000830152610ce181610ca5565b905091905056fea2646970667358221220bdd6e2d5634ad8724ceaf6b558ea2b0ab281abd7416a5066748afeb3a6ec4fdc64736f6c634300080b0033",
  "immutableReferences": {},
  "source": "//SPDX-License-Identifier: MIT\r\n\r\npragma solidity ^0.8.11;\r\n\r\ncontract Lottery{\r\n    address public owner;\r\n    address payable[] public players;\r\n    uint public lotteryId;\r\n    mapping (uint => address payable) public lotteryHistory;\r\n\r\n    constructor() {\r\n        owner = msg.sender;\r\n        lotteryId = 1;\r\n    }\r\n\r\n    function GenerateRandomNumber(uint number) public view returns(uint){\r\n        return uint(keccak256(abi.encodePacked(block.timestamp,block.difficulty,  \r\n        msg.sender))) % number;\r\n    }\r\n\r\n    function getWinnerByLottery(uint id) public view returns (address payable){\r\n        return lotteryHistory[id];\r\n    }\r\n\r\n    function getSender() public view returns (address) {\r\n        return address(msg.sender);\r\n    }\r\n\r\n    function getBalance() public view returns (uint) {\r\n        return address(this).balance;\r\n    }\r\n\r\n    function getPlayers() public view returns (address payable[] memory){\r\n        return players;\r\n    }\r\n\r\n    function enter() public payable {\r\n        require(msg.value > .01 ether, \"Transaction failed. Not enough gas.\");\r\n\r\n        //address of player entering lottery\r\n        players.push(payable(msg.sender));  \r\n    }\r\n\r\n    function pickWinner() public onlyOwner {\r\n        uint index = GenerateRandomNumber(players.length);\r\n        players[index].transfer(address(this).balance);\r\n\r\n        lotteryHistory[lotteryId] = players[index];\r\n        lotteryId++;\r\n\r\n        //reset the state of the contract\r\n        players = new address payable[](0);\r\n    }\r\n\r\n    modifier onlyOwner(){\r\n        require(msg.sender == owner, \"Transaction failed. Operation available only for owner.\");\r\n        _;\r\n    }\r\n}",
  "sourcePath": "C:\\Users\\vikto\\Documents\\React Exercises\\lottery-react-app\\truffleProject\\contracts\\Lottery.sol",
  "compiler": {
    "name": "solc",
    "version": "0.8.11+commit.d7f03943.Emscripten.clang"
  },
  "schemaVersion": "3.4.12",
  "updatedAt": "2023-03-03T13:26:02.731Z",
  "networkType": "ethereum",
  "devdoc": {
    "kind": "dev",
    "methods": {},
    "version": 1
  },
  "userdoc": {
    "kind": "user",
    "methods": {},
    "version": 1
  }
}